:020000041000EA
:1000000000B5324B212058609868022188439860DF
:10001000D860186158612E4B002199600221596106
:100020000121F02299502B49196001219960352056
:1000300000F044F80222904214D00621196600F024
:1000400034F8196E01211966002018661A6600F04E
:100050002CF8196E196E196E052000F02FF8012189
:100060000842F9D1002199601B49196000215960AB
:100070001A491B48016001219960EB211966A021F2
:10008000196600F012F800219960164914480160C1
:100090000121996001BC002800D000471248134993
:1000A000086003C880F30888084703B5996A0420EC
:1000B0000142FBD001200142F8D103BD02B5186610
:1000C0001866FFF7F2FF186E186E02BD00000240BE
:1000D000000000180000070000035F00212200005C
:1000E000F4000018222000A00001001008ED00E03C
:1000F00000000000000000000000000074B24E7A12
:1001000000200420F7010010CB010010CD010010E9
:10011000C9010010C9010010C9010010C901001077
:10012000C9010010C9010010C9010010CF01001061
:10013000C9010010C9010010D1010010D301001045
:10014000C1010010C1010010C1010010C101001067
:10015000C1010010C1010010C1010010C101001057
:10016000C1010010C1010010C1010010C101001047
:10017000C1010010C1010010C1010010C101001037
:10018000C1010010C1010010C1010010C101001027
:10019000C1010010C1010010C1010010C101001017
:1001A000C1010010C1010010C1010010C101001007
:1001B000C1010010C1010010C1010010C1010010F7
:1001C000EFF30580103800BE00BE00BE00BE00BECA
:1001D00000BE00BEF2EB8871F84804101849041004
:1001E0003802001090A31AE71E481F49086006C88D
:1001F00081F3088810471D480068002801D019487D
:10020000F3E70DA40ECC002902D000F012F8F9E7B4
:100210001749184A002000E001C19142FCD116495B
:100220008847164988471649884700BEFDE701C937
:1002300001C29A42FBD3704718490410C000002045
:1002400040180020986004100000042000000420E2
:10025000986004100010042000100420000000002A
:10026000704700000000000008ED00E0000000D032
:100270004018002000600020A15B0010090300105E
:10028000995B0010F8B5C04606480749091A8B105B
:10029000C90FC91810B5491003D0044B002B00D06A
:1002A000984710BD401800204018002000000000B2
:1002B000054B10B5002B03D00449054800E000BFF2
:1002C000FFF7E2FF10BDC04600000000784A0020A2
:1002D000B4C9001070B500210020D025802407F09B
:1002E0009DF92D06A40201200021404206F014F9D8
:1002F000002006F0E9FE002801D1AC61F3E700F030
:10030000D9FE6C61EFE7C04670B500F091FB07F0D5
:10031000EDFC051E55D103F02FF9002829D0032448
:10032000002000F06BFB322002F0BEFC012000F048
:1003300065FBE120013C400002F0B6FC002CEFD14F
:10034000FA200121400003F0D3F800F08FFB0400F5
:1003500003F0C4F800F048FD002807D0012C18D0A5
:10036000022C0AD0032C20D0280070BD00F00CFB1A
:10037000FAE7012000F042FBE2E701F06BF801F040
:1003800005F800F051F8104805F076FE00F05CF832
:10039000EAE701F05FF800F0F9FF00F09FFF0A487C
:1003A00005F06AFE00F012F8DEE701F053F800F005
:1003B000EDFF00F06FF9044805F05EFE00F082F9F1
:1003C000D2E701256D42CFE7D502001070B50026B7
:1003D000002000F019FB124D124C03F07FF800F0E2
:1003E0001DFE00F031FF23685A1C2260AB4210D87A
:1003F0000A20002102F0E2FB00F008FD0628ECD103
:10040000002000F0FBFA002000F0FEFA00F0ACFD46
:10041000E3E700F0D9FC00F0F7FA2660E8E7C04611
:10042000102700005C46002010B50C2001F096FB60
:10043000D02380221B0652015A6201210D209A61AD
:1004400001F086F910BDC046F0B5DE4657464E466F
:100450004546E0B500208DB000F0D6FA7D4A002375
:1004600093460122594652420A607B4A7B491360F7
:10047000029204220A70A022794E039179493360D6
:100480000B60794B8946180000211201059303F097
:10049000B3FE764B764F0693764BB8460893764B71
:1004A000029F0993754B0B93754B0193754B9A46BD
:1004B000754B0A93534604935B46B246059E0593DB
:1004C000724B9B4603F00AF8300000F091FE4B4659
:1004D000A0221B681201934292411340F25C002A51
:1004E00023D14B461A603B68514601333B6053466B
:1004F0001B685A1C0A605B4538D8434641461B6856
:100500005A1C0A605B4529D80A20002102F056FBDC
:1005100000F07CFC0628D5D1002000F06FFA002006
:1005200000F072FA00F020FDCAE70021F1544946BC
:1005300001330B60612AD6D1039B1B78012B68D055
:1005400001210122042B74D0039B019819700B998F
:1005500005F0B2FA019800F025FEC4E700F034FC83
:1005600000F052FA434600221A60CDE70D2001F058
:1005700029F9039B02001B780293012B2AD9202B17
:1005800000D92023DBB29C46069B1B789C453DD9B5
:10059000591CC9B20797370009989B00C250069BA7
:1005A000020019706646002000210023BC46002589
:1005B00010CA013300196941B342F8D36346B44607
:1005C0001E00089B624618605960002303F0E0F9A2
:1005D0000200079F049B1A60059B1B68934203D18E
:1005E0002B4B396899420DD9029B0A99019805F065
:1005F00063FA019800F0D6FD049B059A1B6813600E
:1006000000233B60534600221A6076E70121002355
:10061000C0E70022069B08991A700022002309985F
:100620000A604B600021803203F0E6FD04210422C1
:100630008AE70022069B08991A7000220023099875
:100640000A604B600021803203F0D6FD08210822A9
:100650007AE7C046A8540020E45F0020FB5F00203A
:10066000B8540020DC5F0020DC550020F95F00203A
:100670005C460020E01A0020601A0020B8C9001073
:10068000A04A0020A4540020D4C900101027000064
:100690009F86010030B50A4C83B00C21684601F0FA
:1006A000C3F86D4623000D2006CD06C3012101F0DD
:1006B0004FF85A21200001F009F903B030BDC046BF
:1006C000CC540020F0B5DE4657464E464546E0B5D0
:1006D000002091B000F098F9984A002392465A22DF
:1006E00051460A60964A974E934601225946524215
:1006F0000A60954A95491360049204220A70A02268
:100700000591934933600B60924B89461800002194
:100710001201099303F070FD8F4B904F0893904B9B
:10072000B8460A938F4B049F0B938F4B0D938F4BBF
:1007300003938F4B0E938F4B0F938F4B06938F4BDF
:100740000C935B46D346B246099E079302F0C6FE61
:10075000300000F04DFD4B46A0221B681201934271
:1007600092411340F25C002A25D14B461A603B6847
:10077000514601333B6053461B685A1C0A60804A4D
:1007800093423DD8434641461B685A1C0A607C4A46
:1007900093422DD80A20002102F010FA00F036FB17
:1007A0000628D3D1002000F029F9002000F02CF910
:1007B00000F0DAFBCAE70021F154494601330B602F
:1007C000612A70D05B461B682B2A7ED1591CB32B43
:1007D000CDD85B460E98196001F0B2F85B460F99D0
:1007E0001A68039805F068F9039800F0DBFCBEE78F
:1007F00000F0EAFA00F008F9434600221A60C9E75F
:100800000D2000F0DFFF059B02001B780493012BF5
:100810002AD9202B00D92023DBB29C46089B1B78C9
:100820009C455BD9591CC9B2099737000B989B00AE
:10083000C250089B02001970664600200021002368
:10084000BC46002510CA0133001969419E42F8D800
:100850006346B4461E000A9B624618605960002336
:1008600003F096F80200099F069B1A60079B1B681D
:10087000934203D1434B3968994210D95B4604999E
:100880001B68039800910C9905F016F9039800F085
:1008900089FC069B079A1B68136000233B60534644
:1008A00000221A606EE7059B1B78012B26D00121E0
:1008B0000122042B32D0059B039819700D9905F085
:1008C000FBF8039800F06EFC51E72D2A09D0B42103
:1008D0006F2A0BD18B4200D149E77AE7012100232F
:1008E000A2E7591E002B00D141E772E75A396B2A63
:1008F000F0D06D2A00D03AE70021EBE70022089BF8
:100900000A991A70002200230B980A604B6000219C
:10091000803203F071FC04210422CCE70022089B02
:100920000A991A70002200230B980A604B6000217C
:10093000803203F061FC08210822BCE7DC3B002088
:10094000AC540020BC540020E85F0020FA5F002077
:10095000DC5F0020DC550020F95F00205C460020B1
:10096000E01A0020601A0020B8C90010A04A002038
:10097000CC540020F4C90010A054002010CA00106C
:10098000102700009F86010070B50024194D1A4EF3
:10099000013402F0A3FDAC4216D0B4421ED00A20AE
:1009A000002102F00BF900F031FA0628F0D1002006
:1009B00000F024F80134002000F026F800F0D4FA0A
:1009C00002F08CFDAC42E8D1002000F017F80120C5
:1009D00000F01AF8002000F021F8E0E7012000F014
:1009E0000DF8002000F010F8012000F017F80024A6
:1009F000D5E7C04610270000204E000010B50100CA
:100A0000002007F051F910BDD02380221B065202AE
:100A1000002801D05A6170479A61FCE7D0238022F8
:100A20001B069202002801D05A6170479A61FCE7C8
:100A300010B5102001F092F8112001F08FF80F206E
:100A400001F08CF8022001F089F8D0238021802267
:100A500080201B0649029202000259625A62986283
:100A60000420986299619A6110BDC046F0B5DE46D7
:100A700057464E464546D0238022E0B51B0652021B
:100A800085B09A61802292029A6101230393BC4B44
:100A900000249B46BB4FBC4E019702F01FFDD023A4
:100AA0001B06586880210700019A09020F40BC46C6
:100AB00033681278084235D0312B38DC013333608B
:100AC000012A3ED0022A00D180E0002A04D000236F
:100AD0005A461360019A1370022C68D0032C48D038
:100AE000012C1DD000240A20002102F067F8D4E771
:100AF000012A00D1E7E0022A00D1EEE0002AE6D187
:100B00009F4B1A600223019A1370022C4FD0032CC2
:100B10002FD0012C04D0D02380221B0652025A6110
:100B20000124E0E719003131E2DB013BC7E7012A8C
:100B300007D0022A00D1B4E0002AC8D10123019ACB
:100B40001370022C33D0032C13D0012CE8D0D02307
:100B500080221B0652029A61802292029A6101232E
:100B60000393039805B0F0BCBB46B246A946A04625
:100B7000F0BD0135A84575D043465344AB420BD177
:100B8000D02380221B0652025A6180220025920245
:100B90009A61029B013B0293029B002B6DD00324C0
:100BA000A1E70021002007F07FF8022CAFD101352A
:100BB000A8456BD0434653449D4205D3D0238022A1
:100BC0001B06520200259A6102248CE76C4B6F4A87
:100BD00099461B689342E8D84A46013313606C4A31
:100BE0009342DED06B4A9342DFD100231F000121E4
:100BF000002007F059F8012FD7D14B46664A1B68F1
:100C00009918664A91422BD9654904228B4200D932
:100C100081E0012301990B70032CAAD0012C00D193
:100C2000C8E0022C00D05DE70135A84504D1D023EF
:100C300080211B064902596143465344AB4200D808
:100C400091E0052A6DD1039B012B7DD0022B00D1B1
:100C500081E0544B00259A4698460123039342E7CE
:100C60000522D6E7D02380221B0652029A618022F9
:100C700092025A61029B002B91D1D02380221B0645
:100C800052029A61802292029A616AE7D0238022FE
:100C900041461B06520251445A61884592D20224B1
:100CA00021E7374B394A99461B6893422DD84A466B
:100CB00001331360364A93425CD00121354A0F005C
:100CC000934294D099E762462D4B1A600223019A11
:100CD0001370022C00D001E769E7294B2B4A994693
:100CE0001B68934200D960E74A4601331360284AE3
:100CF000934200D155E70321264A0F00934200D1C9
:100D000075E7022C00D002E751E7234A9446234AB4
:100D100063449342A4D90121002006F0C5FF0622B6
:100D200077E7062A00D0DEE6D02380221B06520297
:100D30009A61802292029A61052302931A4B002540
:100D40009A4698460324CEE602230393174B0025C8
:100D50009A469846C7E6164B02249A4698460323BD
:100D600000250393BFE6D02380211B0649020025FE
:100D7000996166E70021002006F096FF3DE7C04636
:100D8000E05F0020FC5F0020C85400203F420F00BD
:100D900090D00300A0F70300EFD8FFFF8E5F0100A3
:100DA0008FD00300409C0000A8610000204E00008E
:100DB00010270000034B00259A46984602231C008A
:100DC000039390E6204E0000D02304221B065968AE
:100DD0000A4206D059680A4203D058684007C00F3B
:100DE00000E000207047C04610B5022006F066FF04
:100DF000002801D1002010BD022006F05FFF00286E
:100E0000F8D0022006F05AFFF5E7C046D0231B06B3
:100E10005868802170B506004A4C4B4D0902236882
:100E20002A780E40084207D0312B16DC01332360AC
:100E3000012A08D1012070BD1900313116DB013BB8
:100E40002360012AF6D0022A1CD0002A03D00022F7
:100E50003E4B2A701A600020EDE7012AEAD0022AF0
:100E600045D0002AF3D101232B70E3E7012A2AD0D1
:100E7000022A4BD0002AEAD1344B1A6002232B708D
:100E80000320D8E7314C324A23689342F8D8314ADC
:100E900001332360934224D02F4A00269342EFD19E
:100EA0000121002006F000FF012EE9D12B4A236822
:100EB00099182B4A914212D92A4A0420934235D8D4
:100EC00001232B70B7E7214B02201E6002232B70F9
:100ED000B1E7224A9446224A6344934226D8052029
:100EE000EEE70020002106F0DFFE0320A3E7174C09
:100EF000174A23689342ECD8164A01332360934281
:100F00001AD0154A9342D1D10126C9E70F4C104A95
:100F100023689342B4D80F4A013323609342E0D050
:100F20000D4A03269342BBD0032084E70020012111
:100F300006F0BAFE0620C3E70021002006F0B4FE4A
:100F4000B4E7C046C8540020FC5F0020E05F0020EA
:100F50003F420F0090D00300A0F70300EFD8FFFF3F
:100F60008E5F01008FD00300F8B5D02680271725AB
:100F700036067F020524B76102F0B0FA013C0A2070
:100F800001F092FE002CF7D17761053402F0A6FA49
:100F9000013C0A2001F088FE002CF7D1013D002D14
:100FA000E8D1D02380221B0652029A6102F096FA01
:100FB000FEE7C046F0B5C6461026144C00B5A3693E
:100FC0001E4202D080BCB846F0BD114B18009846B6
:100FD0000BF0BEFCA3691E4214D10E48A02740446A
:100FE000050010220C4E3F0181591835B94209D233
:100FF000A3691A42FCD123686B5401318151A36962
:101000001A42F3D040460BF02BFCDBE700400340D4
:1010100004260020E4F5FFFF180A000070B5224DF9
:101020002C002800103C0BF093FCA368E2792168A7
:101030001B02134399420CD01C4802F045F82B00C8
:101040002278093B1A7062785A70A2789A70E27816
:10105000DA70174C2279E37A93421CD0A1794B1FA6
:10106000022B00D90821023A53425A4163790132D6
:10107000012B17D0023B58424341DBB20B4802F030
:101080007DF8A3796373637923732379E37228006E
:101090000BF0E6FB70BD6368A1891B021B0C994233
:1010A000DCD1F4E70223E9E7F81B0020004003400D
:1010B000E81B0020F8B5334C26002000103E0BF052
:1010C00047FC3100002006F019F820000BF0C8FBA7
:1010D000002006F023F8051E05D137002A4C3B59A5
:1010E000002B1AD1F8BD294B0021E0180BF0F8FBBA
:1010F00037000028F2D0A022254B1201F158521AD5
:10110000AA4200D92A00002A26D1224F1E4C22488A
:101110000BF0A6FB3B59002BE4D0204B0021F81824
:101120000BF0DEFB0028DDD03E0018363A593100C6
:10113000002006F08DF83A590500904219D3124B61
:10114000521BFA50154BF8180BF08AFB002DC9D032
:10115000002006F03FF8C5E7114B0E4F9C46614456
:101160000020791805F0E8FF094ABB581B18BB504E
:10117000CCE701001831121A791830000BF01EF973
:101180003A59DCE7F81B0020180A00001814000088
:1011900024140000E81B0020103000201C0A00006E
:1011A000240A0000F8B504000E4F38000BF0D0FB05
:1011B0002278002A11D00C4BA026F91808000B4DFC
:1011C00036014B591830E41A05E0C25401334B5133
:1011D000E25C002A01D0B342F7D338000BF040FBA9
:1011E000F8BDC04604260020E4F5FFFF180A000001
:1011F00070B5114C114E0500A359002B00D170BDE4
:101200000F4B0021E0180BF06BFB0028F7D0A25920
:10121000002A09D000230B4AA118CA5CEA54A2593B
:1012200001339A42F9D8D21A044BE250044BE01829
:101230000BF016FBE3E7C046E81B00202414000077
:1012400028140000240A0000F8B51F4D1F4C2B592C
:10125000002B00D1F8BD1E4B0021E8180BF040FB1D
:101260000028F7D0202632001A492F598B69002414
:101270001A409446184A2020AA181E4221D1BC4286
:1012800017D0165D8B691842FCD10E608B69013452
:101290001842F4D03B1B9C46BC420AD20E4B62461D
:1012A000E118E81869180BF089F8084BEB581B1B7C
:1012B0009C466246054BEA50054BE8180BF0D0FA05
:1012C000C8E7BC46E8E7C046E81B0020241400003D
:1012D0002814000000400340240A000070B50221D9
:1012E0000C2000F05BFB02210D2000F057FB0022D8
:1012F00001210D2000F06CFB01210C2000F08EFB81
:1013000001210D2000F078FB1B4D1C4C28002168AA
:1013100001F04AFEC0222B6B12021340184A1360E0
:10132000A1794B1F022B00D908212279023A53429E
:101330005A4163790132012B1BD0023B5842434191
:10134000DBB20D4C200001F019FF2000002101F05C
:1013500051FF14200B4900F03BFD0121142000F047
:1013600011FD5023A363626B183B1340064A1360C0
:1013700070BD0223E5E7C04600400340E81B0020A3
:1013800030500340B50F001034500340E12310B536
:101390000D4C5B0223600D4B200063600C4B0D4A2B
:1013A000A36080231B01A3810023A3500A4A1030AD
:1013B000A35000F0E9FF094BE01800F0E5FF084BEF
:1013C000E01800F0E1FF10BDE81B0020010008005C
:1013D000C2010001180A0000241400001C0A0000C9
:1013E000281400000048704710D0001000487047D3
:1013F000C4CF0010002806D1124B13484380063B8F
:10140000FF3B03807047042819D8104B8000C05858
:101410000F490123013804E001330A800231142B03
:1014200009D0C25C002AF7D1C022DBB25B00920077
:1014300005481343E5E7CA2303489B00E1E7002082
:10144000E0E7C0460904000028460020B0CF0010A5
:101450002A46002010B58AB008AC200004F0A0FD98
:10146000E17923780691A179084A059161790848C4
:10147000049121790391E1780291A1780191617839
:101480000091112104F02EFB0AB010BD40CA0010DB
:10149000F8110020F8B5A74D2A68002A00D183E092
:1014A000D0231B061968A44C4B1E99413023276892
:1014B00049420B40A149F8088C46010008316344B9
:1014C0008900CE5807233B409B00DE400C2131426F
:1014D00000D08CE0012A67D9D0231B061968276940
:1014E0004B1E9941302349420B409449F8088C46E1
:1014F0000100083163448900CE5807233B409B001C
:10150000DE400C21314250D1022A4DD9D0231B0696
:101510001968276A4B1E9941302349420B4087497D
:10152000F8088C460100083163448900CE5807232F
:101530003B409B00DE400C21314200D07AE0032A80
:1015400032D9D0231B061968276B4B1E99413023D3
:1015500049420B407949F8088C4601000831634440
:101560008900CE5807233B409B00DE400C213142CE
:1015700000D0A9E0042A17D9D0231B061B68216CD0
:101580005A4253412F225B4293436D4AC808944606
:101590000200083263449200D55807230B409B0099
:1015A000DD400C222A4267D1F8BD0F2232409A401A
:1015B00013003C30634A8000835001F0A7FC73079E
:1015C00001D5A061E161360777D5A269E3691343CC
:1015D00073D00023801A0022A261E3615A4BC21823
:1015E0005A4B9A4200D997E02A6860618CE70F2233
:1015F00032409A4013003C30524A8000835001F040
:1016000085FC730701D5A060E160360710D5A2689C
:10161000E36813430CD00023801A0022A260E36029
:10162000494BC218494B9A4272D82A68606051E708
:101630002A684FE70F2232409A4013003C30414A5B
:101640008000835001F062FC730701D5A062E16263
:10165000360734D5A26AE36A134330D00023801AD8
:101660000022A262E362384BC218384B9A4257D923
:1016700000232A68636262E703322A409A403149B4
:101680003C3083005A5001F041FC6B0701D5A06447
:10169000E1642D0700D487E7A26CE36C134300D10B
:1016A00082E70023801A0022A264E364264BC2185A
:1016B000264B9A423AD8606476E72A6824E72A687B
:1016C000032A00D93DE76FE70F2232409A4013000A
:1016D0003C301C4A8000835001F018FC730701D590
:1016E000A063E163360711D5A26BE36B13430DD002
:1016F0000023801A0022A263E363134BC218134B2A
:101700009A4210D900232A68636333E72A6831E7D5
:1017100000232A686360DDE600232A686361F3E63C
:101720002A6860620BE72A68606323E7002363642A
:101730003AE7C04664460020101A002000410140EC
:10174000304101400040014012FDFFFFDC05000078
:10175000194A70B5136804000E000020042B00D94C
:1017600070BD164D19014C516D18686000210020A4
:10177000A860E960012501332000136000F0EEF954
:10178000D023A5401B0632000C2120009D6200F0F2
:101790006BF928000A4900F0B5F90D2000F004FBB0
:1017A000002801D1002E01D10120D9E70D2001210F
:1017B00000F0E8FA0120D3E764460020101A002068
:1017C00095140010164B02001868002818D0154B0D
:1017D00019688A4217D0012813D019698A4217D094
:1017E00002280ED0196A8A4214D0032809D0196B36
:1017F0008A4211D0042804D0196C00208A420DD0EE
:1018000070470020FCE7002212019B185868F7E798
:101810000122F9E70222F7E70322F5E70422F3E7C2
:1018200064460020101A0020F8B50D0006000421BF
:10183000280000F0B3F86B081F2D25D807241C40A2
:10184000052001F0F3FD1B4B1027984204D91A4BD9
:1018500098421DD9FF273F010021A3001B19174AF9
:1018600017489B009A1811609160D1601061576011
:10187000116011680C228A43124930008C4663447F
:10188000356074601A60F8BD03241C400834D7E743
:101890000D4902F03FF802F0F5FBF421890502F052
:1018A000D3FB8321C90502F0E6FB02F013FC07001D
:1018B000D2E7C0463F420F00FF3F420F0000054005
:1018C000204E00000010054040420F0010B50400FB
:1018D000B42926D84B015B1A9B005918C800B421C3
:1018E00002F018F8FA239B009C4662682168930076
:1018F0009B180E4A9B0060449A18C90712D40C49E1
:1019000014686040014080204001844662441160B8
:10191000084A9A18116801228A4307498C46634491
:101920001A6010BD05490004EAE7C0460C000540F6
:10193000FFFF000000000540001005400000FFFF11
:1019400010B50400B4291ED84B015B1A9B0059182E
:10195000C800B42101F0DEFFFA239B009C466268B8
:10196000604493009B180A4A9B0094462268634493
:10197000D20709D4074A196841400A408021490129
:101980008C4663441A6010BD034A0004F3E7C04666
:101990000C000540FFFF00000000FFFF094A830024
:1019A0009A1810B514684022544080322240064CE8
:1019B000C000A44663441A60044B9C4660444160E6
:1019C00010BDC04604C0014004D0014000400140A9
:1019D000074B8000C3181B68C90092000A435A4095
:1019E0000C231340034A9446604403607047C0468A
:1019F00004C0014004D00140064BC000C3181B685E
:101A000009045940C0239B021940034B9C46604483
:101A1000016070470440014004500140064BC00083
:101A2000C3181B6809025940C0239B001940034B8F
:101A30009C466044016070470440014004500140EE
:101A40008000002905D0064B9C46022360440360B9
:101A50007047044B9C46022360440360F8E7C0468D
:101A600004E0014004F00140D0231B061B6830B5A0
:101A70000500584243412F205B4283430E48EC0847
:101A80008446072028408000814020000B4D3C30D8
:101A900063448000A40041511B19002A05D0802214
:101AA000920194466344196030BDC022920194466D
:101AB00063441960F8E7C0463041014000400140EE
:101AC000D023F0B5C6461B0698461B680C4F9B00FA
:101AD0001600FA5804000D0000B5104209D1290083
:101AE00014430D203200FC5000F09CF980BCB84635
:101AF000F0BD01F0A3FD43461B689B00FA58EEE7DA
:101B0000B0540020F8B5D0273F063B680A4E9B0032
:101B1000F25804000D00024207D1290014430D20A1
:101B20008022F45000F07EF9F8BD01F087FD3B689B
:101B30009B00F258F1E7C046B054002010B50400F5
:101B40000D2000F069FAD0231B061B6802499B0098
:101B50005A58A2435A5010BDB05400200123D0223D
:101B60008340120693629361094A83009A181168B0
:101B70004022514080320A400649C0008C466344EE
:101B80001A60054B9C460523604443607047C0467D
:101B900004C0014004D00140004001408023DB0527
:101BA0001868000F7047C0460FB400B5084883B0EE
:101BB00004F066F9049B002B07D005A918000191D9
:101BC00003F0B6FF034804F05BF9012003F0C8FFFF
:101BD00088CA0010A8CC0010EFF3108072B6034A38
:101BE0001368002BFCD0BFF35F8F70472C0100D02F
:101BF000BFF35F8F0022024B1A6080F3108870479A
:101C00002C0100D070B5EFF3108C72B60D4D2B681F
:101C1000002BFCD0BFF35F8F0724CB08C618C05C35
:101C200001230C40A3401C000440034207D1184389
:101C30003070BFF35F8F2C608CF3108870BD100084
:101C4000FFF7B2FF2C0100D0F8B54746CE468846D4
:101C500080B5EFF3108C72B61C4D2C68002CFCD0B4
:101C6000BFF35F8F9A4222D807210126894602E0FE
:101C70000132934218D34D4637001540AF40D40887
:101C80000119045D2742F3D110003C430C70BFF3EF
:101C90005F8F00220D4B1A608CF3108800280EDB3A
:101CA000C0BCB946B046F8BD01204042EFE7BFF3E3
:101CB0005F8F00232B608CF3108801204042434645
:101CC000002BEDD00898FFF76FFFC0462C0100D025
:101CD00030B5EFF3108C72B60A4C2368002BFCD0A1
:101CE000BFF35F8F072301220B409A40CD08435D6D
:101CF00093434355BFF35F8F002323608CF3108819
:101D000030BDC0462C0100D0044A1078431CDBB221
:101D1000172B00D9102313707047C04609120020FA
:101D200010B5064B064C82B00100009318221F2309
:101D30002000FFF789FF02B010BDC04698CA00100E
:101D40000C3D00200021044B044ABFF35F8F02C307
:101D50009342FAD17047C046000100D0800100D004
:101D6000054B064A1360064A136053609360D360C4
:101D700013615361936170478080808000E400E0CC
:101D800004E400E01F2318401E3B8340002905D0D7
:101D9000C021044A49005350136070478022014912
:101DA0008B50FAE700E100E001228240034B1B6800
:101DB00013405A1E9341D8B27047C04600E100E07C
:101DC00001238340014A13607047C04600E200E0EF
:101DD00070B50D00EFF3108672B60F4A1368002B32
:101DE000FCD0BFF35F8F0D4B10309B6884001B59F4
:101DF0000B4A934203D09D4201D001F01FFC074BD8
:101E00009B681D51BFF35F8FBFF35F8F0022024BB2
:101E10001A6086F3108870BD240100D000ED00E048
:101E2000C1010010F0B557464E46DE464546E0B5C6
:101E300085B0060000911700EFF3108B72B66A4A66
:101E40001368002BFCD0BFF35F8F0025674B5D57F5
:101E50009A46002D00DAA9E06B00654C01935B19EE
:101E60009B009846A146C1444B4652469B7910368A
:101E70001370604BB6009B6899590B1B2F2B33D9FD
:101E80005D4B994200D0ACE0019B42469C465B4BC7
:101E90006544AD0063535A4B0232A218043B9B1AAF
:101EA0001B05584A5B0D651913436B80564B012186
:101EB000AB80FF23AB71009BEF71AB604B460B43D4
:101EC00019004C4B9B689951BFF35F8FBFF35F8F35
:101ED0000022454B1A608BF3108805B0F0BCBB465E
:101EE000B246A946A046F0BD01200A008243D3793C
:101EF0008C46BB4231D84546130044491B1B5B410D
:101F00005943090D3D4B63533D4B02356519043B65
:101F10005B1B1B053B4D5B0D2B43AA464D466B805F
:101F20000425AC465546E044131F44441B1B1B05C7
:101F30005B0D1D434B46997100999D809960494600
:101F4000DF71334B01431360BBE75800C0188000BA
:101F50002018C179B9422FD902000623D356002B8D
:101F6000F3DA02932B4B61460393131D9A46042325
:101F70005B429C46E14450464B461B1A1B055B0DD9
:101F80009C46204B95719846634640460343938098
:101F9000019B5A199200039BA418A380029B1C4A20
:101FA000A371009B2260E771A3608AE701F046FB02
:101FB000002553465D574FE7908802934005131D57
:101FC0009A46031561469C464046D4446346043015
:101FD0002018181AE0230005400D1B021843039037
:101FE000C5E701F02BFB4FE7240100D0F85F00208C
:101FF0000C12002000ED00E0C101001000A1FFFF65
:102000003C12002000E0FFFF01BDFFFFAAAA000074
:102010000148804701BD0000F0B5DE4657464E46F8
:102020004546E0B50C0083B0EFF3108872B6634A02
:102030001368002BFCD0BFF35F8F614B61499A6836
:10204000030010339F00D55901938D4243D0A54220
:1020500054D05D4EAA1B2F2A3DD85C4B9B461B6873
:10206000994601231A009C4682404B4613401F228A
:1020700099466346024093409A4680225B4650460A
:102080009850BFF35F8FEFF305839B46002B37D04B
:10209000019B5B4501D001F0D1FA01232A009A434C
:1020A0009068844208D176E04B005B189B00F318DF
:1020B0009868844236D01A00062151560029F3DA76
:1020C000844254D04B46002B27D0C02251463F4B70
:1020D0005200995019603A4B9B68DD51BFF35F8FF6
:1020E000BFF35F8F0022354B1A6088F3108803B06E
:1020F000F0BCBB46B246A946A046F0BD0D00EAE7DB
:102100002A0063469A4390688442D5D1062010562F
:10211000130000280ADA0D0031E0802351462B4AD3
:10212000D150D8E706201856002821DB42001118AC
:10213000890074188B46A1689960E179D9710621EC
:1021400061569971002924DBA488F11A64052415CD
:102150005C44091909051E4C490D21439980131847
:102160001C4A9B001178F31899711070AAE71300AC
:102170005946002914D1FF319171174991801549B1
:102180000A789A71154A9B1B5B415A43120D0A70DB
:1021900098E71149E2E70620105613000028C5DA37
:1021A0000F4A1049D21A083A5002400D0143998053
:1021B0000D4952080A43DA8084E7C046240100D062
:1021C00000ED00E0C10100100C12002000E100E071
:1021D00000E0FFFFF85F002001BDFFFFAAAA00009A
:1021E0004612002000F0FFFF00F8FFFF10B5830843
:1021F000040003202040FF24054AC0009446844088
:1022000081409B0063441A68A2430A431A6010BDD0
:1022100000E400E070B501240443EFF30581EFF31F
:10222000108C72B6214A1368002BFCD0BFF35F8F6D
:102230001F4B05001F4AED1A6D416A43120D1E4DDA
:102240008900AE6852B27658A6421CD00621595673
:1022500091421CD012215956914222D01E2159562A
:10226000914220D02A2159560324914210D0134B79
:1022700019781A708171BFF35F8F00220B4B1A60BF
:102280008CF3108870BDAB680D4C5C50EFE70024F8
:102290006100091989005B18FF219971094999802A
:1022A000E5E70124F4E70224F2E7C046240100D068
:1022B0000C120020AAAA000000ED00E0F85F002048
:1022C000C101001001BDFFFF1F2110B5091A02480E
:1022D000FFF7FEFC10BDC046FD5F002010B5084BA7
:1022E000084C82B001000093002205232000FFF774
:1022F000ABFC002801DB1F23181A02B010BDC0463A
:10230000B4CA0010FD5F002070B504000E00150077
:10231000FFF7FAFC0100200000F006F8A680E58037
:10232000BFF35F8F70BDC046024B9C46614489007D
:10233000016070474000003470B5114C114DAC4243
:102340000FD2FF262368002B0CD0FFF7DDFC010025
:102350002000FFF7E9FFA680BFF35F8F0834AC428F
:10236000F0D370BDFFF7D0FC01002000FFF7DCFFC9
:102370002671BFF35F8F0834AC42E3D3F1E7C04668
:10238000301800204018002010B50400FFF7BCFCF6
:1023900001002000FFF7C8FFFF232371BFF35F8F09
:1023A00010BDC04610B50400FFF7AEFC01002000D0
:1023B000FFF7BAFFFF23A380BFF35F8F10BDC046B6
:1023C00010B504000120FFF7ABFC034BC3189B00C2
:1023D0002360BFF35F8F10BD400000340A4B1968C3
:1023E000EFF3108072B60A68002AFCD0BFF35F8F4B
:1023F0001B68BFF35F8F00221A6080F3108840BF14
:10240000002000217047C046D8550020F0B5DE46B8
:1024100057464E464546E0B587B0EFF305830322A5
:1024200001251A40954091008846A946B34B039276
:102430005C58B34B1D60B34B04934B46B2484363A7
:102440000823E55E002D37DAA3881BB2002B00DBE2
:10245000ADE0A379002B00D0EEE00823E05E002879
:1024600020DB430062691B18DB00D3189E68DD681F
:10247000731C00D111E1A44801004144826A0B6938
:10248000B71A9B1A9F4215D30123026A039883400F
:102490001A420FD09C4800F031FD8D4202DCCCD1B5
:1024A0008642CAD940BF07B0F0BCBB46B246A94677
:1024B000A046F0BD0E61EDE762696B0092465B19C4
:1024C000DB009A4453469E68DF6800F017FD8F4298
:1024D000BADC00D103E1002F00DAE8E052465346AF
:1024E00052691B699346049A934200D1D9E052463F
:1024F0000821605E528800045946104398470090B6
:1025000001910099019A0B001000134300D1CEE015
:1025100013000A00B61A9F41002806DB7A4800F033
:10252000EDFC009E019F36184F4153469E60DF60D0
:1025300000229A5E002A00DA86E753009918606943
:10254000C900411802938B68C9689B46B94200DDF7
:102550007AE702D1B34200D976E708239C46A44427
:10256000059565462281A446029B2C0006E0530097
:102570009918C90041188D68C968AB469B18DB00E3
:10258000C318B94206DC00D1B3E01C000023E25EB0
:10259000002AECDA230064469C4653461A806346C0
:1025A000059D1D80A3881BB2002B00DA51E722692C
:1025B000EFF3108172B61368002BFCD0BFF35F8F6E
:1025C0000123A7885B42A3803FB22369BFF35F8FDB
:1025D00000221A6081F31088002F00DA39E7230007
:1025E000083322009A4666697B00DB19DB00F3188A
:1025F000996850468C460824115FDD68002910DB7D
:10260000029306E0AB4244D00023E15E20000029A3
:1026100006DB4C006418E4003419E368AB42F1DDDA
:10262000029B078000201F5E1980002FDCDA140057
:10263000A379002B00D110E70023A3712600082303
:10264000E15E08364B1C00D12CE70800A246656904
:1026500002E03E004B1C1AD04B005B18DB00EF1869
:102660000A008C46E95E7B881BB2002BF1DA01235D
:102670005B42DC17BB60FC60824205D05346318070
:102680001B893B8053461A8160464B1CE4D154465B
:10269000E5E6A3686345B7D9C2E76B1C00D0EAE65C
:1026A000F8E65B4658461B69984700281BD15346FD
:1026B0001B8822692381EFF3108372B61168002909
:1026C000FCD0BFF35F8F514662880A802269658023
:1026D000BFF35F8F0021116083F31088B4E6864258
:1026E00000D8F8E6B0E65B461A685B680092019392
:1026F00007E7B34500D848E74CE7C046904A0020BA
:102700003C7005400D2400100040054070B52E4C73
:102710002569002D04D00A212C48FFF705FE70BD65
:102720002B4E0321300000F0C7FBE660FFF7ECFA08
:10273000284B03229C46D02322701B061B680121D4
:102740006370254B6044A3600F238000206102204A
:10275000638063694942A18019800231198647313B
:102760001D83585218315A5275325C3999521832B9
:10277000013199521832013199521832013199526E
:10278000083518329D5202311832995218320131EF
:102790009952183201319952183201319952183236
:1027A000013199521832013199520C4B0C49DC60BD
:1027B00001303562FFF70CFB01210320FFF7E2FA3D
:1027C000084B1D60A7E7C04654120020D8550020D2
:1027D0000040054040000034FFFF1000904A0020F8
:1027E0000D24001038600540004870475412002046
:1027F000F8B5050018200F0001F0A6FC041E3ED01D
:102800001821380001F0BEFC01216061280000F0B1
:1028100065FBE5600600FFF777FAD0222670120606
:102820001268184B62709C460122BBB2524260444F
:10283000800063819B1820612281A2806380002F29
:102840000BD079006269C919C9000F4B8918138030
:10285000013318329BB28A42F9D10127B7400B4BA2
:10286000B20030000A492F62D450FFF7B1FA0121BB
:102870003000FFF787FA074B9C4665442F60200025
:10288000F8BDC04640000034FFFF0000904A002021
:102890000D24001038200000124B70B5040098423F
:1028A0001ED001230578C668AB400F4A3362B218C8
:1028B000136001212800FFF765FA28000B49FFF794
:1028C000ABFB2900300000F001FB00212278084B0F
:1028D00060699200D15001F077FC200001F074FC97
:1028E00070BDC04654120020383000000D24001086
:1028F000904A0020F8B51F0008AB1B7804001600B2
:10290000002B08D100F002FB32003B00121A8B4171
:10291000002B00DA52E02269EFF3108072B61368E0
:10292000002BFCD0BFF35F8F0223E15E63694A0096
:102930005218D2009B182269002936DB1D88658059
:10294000BFF35F8F0025156080F31088069A9E60A4
:10295000DF601A61079A5A615A8801325204520C98
:10296000101C002A1FD082B2588008041043266928
:10297000EFF3108772B63268002AFCD0BFF35F8F86
:10298000A2881A80A1802369BFF35F8F00221A609A
:1029900087F310880A4923788C4601329A40E3680D
:1029A00063441A60F8BD0120DDE7BFF35F8F0023A9
:1029B000136080F3108801204042F3E70020F1E724
:1029C0003C20000070B501000469EFF3108C72B672
:1029D00020680028FCD0BFF35F8F02200D5E4C6999
:1029E00068004019C00024180869002D36DB2688CD
:1029F0004E80BFF35F8F002606608CF31088E36083
:102A000063880498013320615B0405985B0CA26025
:102A100060611A1C002B1FD093B2280462801843F7
:102A20000A69EFF3108C72B61368002BFCD0BFF369
:102A30005F8F8B8823808D800B69BFF35F8F0022AF
:102A40001A608CF310880B7801329A40CB680849E1
:102A50008C4663441A6070BD0122DDE7BFF35F8FCF
:102A6000002303608CF3108801204042F3E7C04646
:102A70003C20000010B543890A1493421ADD53002C
:102A80009B184269DB00D3180469EFF3108C72B60F
:102A90002268002AFCD0BFF35F8F5A88090494B2E1
:102AA000090C8A4208D00369BFF35F8F00221A60C5
:102AB0008CF31088002010BD8022120214435C8029
:102AC000012302698371BFF35F8F002111608CF3D2
:102AD0001088044902788C469340C2680120624401
:102AE0001360E8E73C20000040787047F0B506002E
:102AF0000F0006246442E517C646A4197D4100B5BF
:102B000082B08D4214D811D000F000FA22002B00C0
:102B1000121A8B41002B15DC002B44D030003900F9
:102B200000F032FA02B080BCB846F0BD8442EBD966
:102B30000024002500F0EAF922002B00121A8B4134
:102B4000002BE9DD00F0E2F922002B00121A8B4184
:102B5000002B0ADB00230193144B2200009314483E
:102B60002B00FFF72FFF0130D8D0A046290000240A
:102B7000104A1148536A994204D8956A4545CDD206
:102B80009942CBD10568EFF3108C72B62B68002BFD
:102B9000FCD0BFF35F8F0368BFF35F8F1C608CF3C3
:102BA000108820BFE6E7002AB8D0CBE7DD2300106D
:102BB0005412002000400540D8550020F0B5C6460C
:102BC00000B582B004000D0000F0A0F924184D41BA
:102BD000002D02DA01242F4D644206267642F717B3
:102BE00036196F41AF4214D811D000F08FF932007E
:102BF0003B00121A8B41002B15DC002B46D0200025
:102C0000290000F0C1F902B080BCB846F0BDA64270
:102C1000EBD90026002700F079F932003B00121AA8
:102C20008B41002BE9DD00F071F932003B00121AF4
:102C30008B41002B0ADB00230193174B32000093DA
:102C400016483B00FFF7BEFE0130D8D00023390004
:102C5000B0469C46124A1348536A994204D8966A71
:102C60004645CCD29942CAD10668EFF3108772B6B6
:102C70003368002BFCD0BFF35F8F0368BFF35F8F17
:102C800066461E6087F3108820BFE5E7002AB6D0AD
:102C9000C9E7C046FFFFFF7FDD230010541200206C
:102CA00000400540D8550020F0B5C64600B582B0BA
:102CB000040000F02BF9FA2206000F002000002388
:102CC0000021920001F0A0F98019794104000D1E45
:102CD00002DA01242E4D644206267642F717361991
:102CE0006F41AF4214D811D000F010F932003B0010
:102CF000121A8B41002B15DC002B46D02000290036
:102D000000F042F902B080BCB846F0BDA642EBD953
:102D10000026002700F0FAF832003B00121A8B411F
:102D2000002BE9DD00F0F2F832003B00121A8B4173
:102D3000002B0ADB00230193164B32000093164848
:102D40003B00FFF73FFE0130D8D000233900B046EA
:102D50009C46124A1248536A994204D8966A4645DC
:102D6000CCD29942CAD10668EFF3108772B63368A5
:102D7000002BFCD0BFF35F8F0368BFF35F8F664605
:102D80001E6087F3108820BFE5E7002AB6D0C9E7A8
:102D9000FFFFFF7FDD23001054120020004005409C
:102DA000D8550020F0B557464E46DE464546E0B5BC
:102DB00006000F0085B0EFF3058399468B46002B84
:102DC00012D0384900204B6ABB4206D38A6ADB1B0B
:102DD000591E8B41B2424041184305B0F0BCBB467E
:102DE000B246A946A046F0BD2F4B9A46DB689846EE
:102DF00053461B784046039300F080F84246039BFD
:102E0000040004339B009B580D001B1A390030004E
:102E1000001BA941894510DC0DD020BF214A0020AC
:102E2000536A5B45D9D3926ADB1B591E8B41B24270
:102E300040411843D1E78342EFD900F067F83200F0
:102E40003B00121A8B41002B1ADB00230193174B16
:102E50003200009350463B00FFF7B4FD011E0FDD2A
:102E6000104B5A6A5A451BD39B6AB34216D350463D
:102E7000FFF700FE0B4A0020536A5B45ADD3D2E753
:102E8000084A0020536A5B45A7D30020926ADB1BE7
:102E9000B24240415A1E934118439EE75A45E6D13B
:102EA00020BFE4E70040054054120020DD2300105D
:102EB000004870470040054010B5024A0248FEF73E
:102EC000A1FE10BDD0CA0010103D002010B5024870
:102ED000FEF7FEFE10BDC046103D002000B5054BBC
:102EE00083B00093002203230348FEF7ADFE03B036
:102EF00000BDC046F4CA0010103D00200300416A26
:102F00000A00986A596A8A42FAD17047034B596A93
:102F10000A00986A596A9142FAD170470040054008
:102F200070B504000D00174A536A1900966A536A77
:102F30008B42FAD13000190024184D41AB4216D80B
:102F400013D0104B2A005B6A9D4203D90D494B6A8E
:102F50009342FCD3934207D10A4A02E0516A994254
:102F600002D1916AA142F9D370BDA642E9D9054BBD
:102F70005B6A1C005A1CEFD0012201246442E51751
:102F80005242E3E700400540064A536A9942FCD8A2
:102F900007D1044B02E05A6A914202D19A6A9042E8
:102FA000F9D8704700400540F8B5040006200D0030
:102FB00000F03CFA002844D0374B3849E3185A1E39
:102FC00093418022120494465B429B0D344A9B0538
:102FD00063441360334A136018000A689043FBD1BE
:102FE0002D4B314AE31859424B4180215B00490087
:102FF0000620995200F01AFA2900C00000F08AFC5D
:103000000130C3091ED1402701226262A362266BF0
:10301000F30722D4E36A254B0620E51800232B6032
:10302000266300F003FA3900800000F073FC70237F
:10303000E26A5A400E3313402B601D4B2363032377
:10304000A364F8BD1B4A93421ED900231A4A1B4FA2
:103050006262A362266BF307DCD5194B144AE318AE
:103060001A60656AA36A0620AD01ED1800F0DEF96A
:10307000144900F04FFCAD020100280000F04AFCAA
:103080000021FFF74DFFC5E74006800E9F011A00A3
:103090003F180300B9E7C0460080FCBF08C00040ED
:1030A00000E0004000F00040EC5F00202C10000029
:1030B00001030000FEFF0000FFFF0000C0FF3F0013
:1030C000303000004E0E0000F8B5040006200D0060
:1030D00000F0ACF92900C00000F01CFC0130C3096D
:1030E00021D01F4A934233D900231E4A1E4F6262E9
:1030F000A362256BEB071DD51C4B1D4AE3181A6014
:10310000666AA36A0620B601F61800F08FF919491D
:1031100000F000FCB6020100300000F0FBFB0021D3
:10312000FFF7FEFE06E0402701226262A362256BE4
:10313000EB07E1D40022E36A0F4B0620E3181A6084
:10314000256300F073F93900800000F0E3FBF8BD5F
:103150004006800E9F011A003F180300E5E7C046B5
:10316000FEFF0000FFFF0000C0FF3F003030000006
:10317000010300004E0E00002C1000000539013A3A
:10318000F8B5D2004C0105001443002B06D0013BDA
:103190005A4253419B00234302241C432E6BF307E6
:1031A00008D46E23EA6A624013400E4AAA181360DC
:1031B0002E63F8BD0C4B0D4AEB181A606F6AAB6AB0
:1031C0000620BF01FF1800F031F9094900F0A2FB09
:1031D000BF020100380000F09DFB0021FFF7A0FEB8
:1031E000DFE7C0462C100000303000000103000073
:1031F0004E0E0000F8B5066B04000D01F30708D46D
:10320000E36A5D4010231D400D4BE3181D602663EB
:10321000F8BD0C4B0C4AC3181A60476A836ABF0199
:103220000620FF1800F002F9084900F073FBBF0206
:103230000100380000F06EFB0021FFF771FEDFE7B0
:103240002C10000030300000010300004E0E000082
:10325000F8B5DE464E4657464546E0B58B46050076
:103260000A991800160000F055FB0A9B6C001F021B
:10327000324B64199C46A4006444636881469F42B3
:1032800000D967602B1FDBB29846012B30D9C023D1
:1032900080229B01E31812011A60294BAD00595995
:1032A0009A4600291BD17301E026226853401E4034
:1032B000802342465B01E3181E60012A30D9802337
:1032C00080229B01E31812011A6053464A46676048
:1032D0005A51F0BCBB46B246A946A046F8BD586953
:1032E00000F018FB013043001B18033BFDD2DAE766
:1032F0005B46012BCBD1C02303229B01E3181A604C
:10330000023AA3681A42FCD07301E0262268AD009D
:1033100053401E4080230A4A5B019246E3181E6018
:103320005A462168514003220A401A6001225B4636
:103330009A40A3681A42FCD0C1E7C0460080004012
:10334000183D0020F0B546464F46D646C0B51F0092
:10335000344B44009C462418A400644463688846A7
:103360001600FF2B02D880235B006360031FDBB2D3
:103370009A46012B30D9C02380229B01E318120109
:103380001A60294B85005959994600291BD17301B0
:10339000E026226853401E40802352465B01E3181A
:1033A0001E60012A30D9802380229B01E31812017C
:1033B0001A6080235B0063604B465F51E0BCBA46F5
:1033C000B146A846F0BD586900F0A4FA01304300A8
:1033D0001B18033BFDD2DAE74346012BCBD1C023B8
:1033E00003229B01E3181A60023AA3681A42FCD038
:1033F0007301E0262268850053401E4080230A4A5C
:103400005B019146E3181E60424621685140032249
:103410000A401A60012342469340A2681342FCD03E
:10342000C1E7C04600800040183D0020014B8000ED
:10343000C0587047183D0020F8B5040021481E0010
:1034400017000D0000F066FA0100380000F062FA83
:10345000069B36041B031E432368002B20DB1A4BFC
:103460001A49E3185A1E93418022920194465B4206
:103470001B0B174A1B0363441360164A13601F009B
:103480000A689743FBD1144B2560E2182123A06002
:1034900013602368002BFCDA0823E6601360F8BD94
:1034A0003F2322681340AB42D9D1A3681B051B0DF3
:1034B0008342D4D1EE22E368D2021340B342CED18C
:1034C000EDE7C046001BB7000040FDBF08C000404C
:1034D00000E0004000F0004004300000024B1A6899
:1034E000024B5A607047C046704A00200080054079
:1034F000194B1A4A10B5DA618022194BD2051A60AD
:10350000184C194A146000290AD0E022174BD20443
:103510001A60002809D18022144B12061A6010BDCF
:10352000E022D2041A600028F5D043011B1A9B0048
:103530001818802300015B04984209D203000C4A4A
:1035400013608022044BD2055860084B1A60E6E7EE
:10355000084B1800F3E7C046008005402131B76AE8
:1035600000B00540FCFF01000820014000A005401C
:10357000704A0020FFFFFF00064B00209A68002AD7
:1035800006D0D869044B9C46604443425841C0B2BF
:103590007047C04600800540DFCE48958023024A30
:1035A0009B000B43D362704700800540002310B599
:1035B0000100988A1B8B984710BDC046162310B592
:1035C0000100188802331B88984710BDF8B547469C
:1035D000CE4680B50F1E18D014239946043304003C
:1035E0000025012698464B461888434621681B88CB
:1035F000984701C4431E984101350640AF42F2D1BD
:103600003000C0BCB946B046F8BD0126F8E7C04658
:10361000AA23064A1B0113608D235B00D360044973
:10362000044B19605368002BFCDA704700400240DD
:1036300000B0FA00006002407047C04610B5014873
:10364000FEF7B2FA08CB001070B5074D074EB54231
:1036500009D20024013E761BB60808CD9847230006
:103660000134B342F9D170BD70C90010ACC900106B
:1036700070B5074D074EB54209D20024013E761BB6
:10368000B60808CD984723000134B342F9D170BD84
:10369000A4C90010ACC90010054B064A06491A60BF
:1036A000064A074B1A6010000B689843FBD170471D
:1036B00000E00040BFCDFBFE08C00040FE7F3C00A4
:1036C00000F00040044BDB6C002B03D18022034B45
:1036D000D2021A607047C046000011504C201150B1
:1036E000044A054B1A60054A1368DB018033FBD19D
:1036F0007047C046FFFFFF0100F0004008C00040D7
:103700004022034B9A675A671A67DA667047C046C9
:1037100000F0014010B5FEF715FB10BDF8B52749C4
:10372000274C284D641AA6103200302E00D93022C2
:103730002800920000F066FDBC2C3BD830202F23DF
:103740002C196407204A801BE40F9B1B052B16D9FC
:103750003700002C02D0B300771CEA50001B33194D
:103760009B004108EB18C900C9181A605A60083359
:103770009942FAD1012303421CD09843C619B300E1
:10378000EA50731C2F2E15D09B00EA50B31C2E2E2E
:1037900010D09B00EA50F31C2D2E0BD09B00EA505A
:1037A000331D2C2E06D09B00EA50731D2B2E01D00A
:1037B0009B00EA50054B9D60F8BDC046000100101B
:1037C000C001001000000020C101001000ED00E069
:1037D000002310B5294C82B0A367FFF719FF01221F
:1037E000274B1A60636C012BFCD10322254B1A6016
:1037F000224A936B012BFCD1013300930121224A11
:1038000022480433FFF718FE052301210093204AC4
:103810002048FFF711FE0022022104201E4BFFF773
:1038200091FD0022012105201C4BFFF78BFD00229A
:10383000002107201A4BFFF785FD002200210820F8
:10384000174BFFF77FFD8023DB0000930022002150
:103850000920134BFFF7FCFC0022104B002106202F
:10386000FFF770FD0420FFF7E1FD0E4900F052F86C
:1038700001000020FFF792FE02B010BD0080004062
:103880003CB0004030B00040002F6859008002403A
:10389000008C864700C00240001BB70040597307E8
:1038A000006CDC0240420F0001480421014B184724
:1038B00070120020CD350010014B9B6818470000A6
:1038C00070120020124A936F9B0815D29066D16641
:1038D000002905D0FFE7FFE7FFE7516F106F704742
:1038E00004B580210906C2175140002800D0C84302
:1038F00008F0DEFF002104BDF0B5146E556E576F61
:10390000166FFFF7E3FF1466556657671667F0BD3D
:10391000000000D0114A936F9B0813D210665166C5
:10392000002905D0FFE7FFE7FFE7516F106F7047F1
:1039300004B5002801D00020C04308F0B9FF0021E1
:1039400004BDC046F0B5146E556E576F166FFFF785
:10395000E5FF1466556657671667F0BD000000D096
:1039600094464A4A926F9208624601D228E0C046C5
:10397000F0B5464E346E756E776F366F00F020F8F6
:103980009446424A14665566576716676246F0BD0C
:1039900094463E4A926F9208624601D254E0C04675
:1039A000F0B53A4E346E756E776F366F00F04CF8A6
:1039B0009446364A14665566576716676246F0BDE8
:1039C000002B24DB11D000293EDA00B5C943404268
:1039D00000D1013100F038F8C943404200D1013133
:1039E000DB43524200D1013300BD002AEBD1002855
:1039F00001D1002905D00020C90FC90701D1C0435A
:103A0000410800B508F034FF0022002300BD00B5D6
:103A100000290ADBDB43524200D1013300F014F8E5
:103A2000C943404200D1013100BDC943404200D1E9
:103A30000131DB43524200D1013300F005F8DB4392
:103A4000524200D1013300BD002923D1002B18D1EF
:103A5000002A0CD0BC460D4F38667A660021002340
:103A6000FFE7FFE7FFE77A6F386F67467047002888
:103A700001D00748010000B508F0FAFE002200233B
:103A800000BD02000B00002000217047000000D0A4
:103A9000FFFFFFFF002B00D0BFE0130C28D1002A4E
:103AA000E7D080B4114F39667A66FFE7FFE730B49C
:103AB000040C7B6F396F1B0423433B667A66FFE778
:103AC000FFE7FFE7C04684B27B6F3D6F1B042343D3
:103AD0003B667A66FFE7FFE7C04600232C042D0C07
:103AE0007A6F386F00196941B0BC7047000000D090
:103AF000F0B594460025140E01D112020835140FBA
:103B000001D112010435940F01D192000235D40F76
:103B100001D152000135D40B0134254F7C66254C70
:103B20003C660E0C93B2FFE7FFE7FFE73C6F66438E
:103B3000360C7703BE467343DF0B5B04C01AB941F2
:103B4000130C7343DB18C91ACE086643360CB6440F
:103B500093B273431F0F1B01C01AB941130C734377
:103B60001F0B1B05C01AB941860D8F023E436643E9
:103B7000360C092D24DB520A7243801A7703460A59
:103B80006643360C16235B1BDE40DF40BF196446DC
:103B90006643821B7046043506330100D940A840B5
:103BA000C01900D30131A24206D20023F0BD0000AB
:103BB000000000D0FFFFFFFF121B0130F3D3F1E73D
:103BC00009277F1BFE406446A2B27243801A00D2CE
:103BD0000139220C7243130C1204821A99410B0012
:103BE0007046043513370100F940A840801900D30E
:103BF0000131002B02D1A2420AD2F0BD013000D324
:103C00000131121BFAD2013BF8D1A24200D2F0BD21
:103C1000013000D30131121BF7E7F0B51C0C00D0C6
:103C200080E00CB400251C0A04D11B02160E33439D
:103C3000120208351C0B04D11B01160F334312016D
:103C400004359C0B04D19B00960F33439200023540
:103C5000DC0B02D192185B4101351C0097186441BE
:103C60000134464F7C66464C3C660E0CFFE7FFE78E
:103C7000FFE7C0463C6F6643360C7703BE4697B2FB
:103C80007743C01B00D20139C01B00D201399FB25B
:103C90007743C91BC91B170C77437E04FF0B801B9E
:103CA000B941CE086643360C0C2D33DBB644120BFB
:103CB0001F053A431B0B97B27743C01B00D2013953
:103CC0009FB27743C91B170C77433E043F0C801B00
:103CD000B941860D8F023E43664329277F1BFE4074
:103CE0000C3D7746AF40BF1930BCA2B2ABB27243B5
:103CF0007343801A9941220C7243130C1204801AE8
:103D0000994102000B000137001BA941F9D2781E2E
:103D10000021F0BD0C277F1BFE4077467F0BAF4094
:103D2000FF19E0E700245D1C07D0144F7D6639665B
:103D3000FFE7FFE7FFE7FFE73C6F95B29EB2654301
:103D40006643401BB141150C1E0C654366433604A7
:103D50002F0C3E432D04401BB141994204D2020076
:103D60000B0020000021F0BD01D19042F7D3801A52
:103D7000994101349942F2D3F6E70000000000D0E7
:103D8000FFFFFFFF48404140484018B4134B5B68B9
:103D9000019308BD18B4114B1B68019308BD9446EC
:103DA0000F4A926F920805D2624618B40B4BDB683B
:103DB000019308BD0A4AF0B5146E556E576F166F21
:103DC0006246FFF7F2FF064A1466556657671667A4
:103DD000F0BD18B4014B9B68019308BDE81A0020A0
:103DE000000000D0FFB550404240504059404B4089
:103DF000594000E0FFB5154F4C00640D03D0BC42A4
:103E000004D10C0314D80020090D09055C00640DD1
:103E100003D0BC4204D11C030AD800221B0D1B0591
:103E200001264B4009D44B4003D58B4200D182423E
:103E3000FFBD9942FCD19042FFBD0B43DB18034309
:103E40001343F5D0C9434918FFBD0000FF07000028
:103E500000B5FFF7CFFF804100BDC04600B5FFF7BA
:103E6000C9FF01D9002000BD012000BD00B5FFF74A
:103E7000B9FF01D9002000BD012000BD00B5FFF74A
:103E8000B1FF804100BD012040054A00121804D84E
:103E90005A00121801D80020704701207047000016
:103EA0000021002805D17047C1174840401AFAD0B8
:103EB000C90713B5064B1B6898470CBC441CA240AD
:103EC0001005120B0349091B09051943114310BDC5
:103ED000D45400201F04000010B54C00620D802354
:103EE000D218DB00D21A5B057E2A10DD9E3A13DA67
:103EF000CC170903490819435242D14064000134E8
:103F00001532202A05DAD0400843604310BD002056
:103F100010BD0846604310BDC80FC018013810BD61
:103F200018B4024B5B6A019308BD0000E81A002038
:103F300010B50148FDF738FE14CB0010132370B5FF
:103F40001D78012D19D014DD1D48FFF737FB060041
:103F50001C48FFF733FB1C4C80223100200000F08E
:103F600051F9022D06D01948FFF720FB184B1860B5
:103F700070BD154C174BA364F5E7174B124C23602B
:103F80006360A360E36023616361A361E361236213
:103F90006362A362E36223636363A363E3632364F3
:103FA0006364A364E36423656365A365E3652366D3
:103FB0006366A366E36623676367A367E367D9E77E
:103FC0005344000053460000E81A00204C33000020
:103FD000D4540020DD3F0010313F001007B560468B
:103FE00001880A0A0230DF2AFAD1C9B2820804D352
:103FF000028840880004104300E00068014A5050E5
:10400000039007BDE81A002051434343C9188C466A
:10401000110C83B24B4310B4040C614392B280B2D2
:10402000504362431C041B0C001910BC594113047B
:10403000120CC01851416144704700004840414093
:1040400048400E4B5B6818470C4B1B6818470C4ADE
:10405000936F9B0802D2094BDB681847F0B5146ECA
:10406000556E576F166FFFF7F6FF054A14665566D3
:1040700057671667F0BD014B9B681847D85400205E
:10408000000000D0491A002808D1084670470000F7
:10409000C10FC90700D54042002817D0F44603B429
:1040A0000B4B1B68984706BC81409E3840428031CC
:1040B00007D20B0607D04900490AC0051043084340
:1040C00060470130F8E7490A8902F5E770470000C8
:1040D000D4540020014B5B6A18470000D8540020DC
:1040E00010B50148FDF760FD3CCA0010132310B560
:1040F00010481C78FFF762FA0100012C0AD003DD9A
:1041000080220D4800F07EF80C48FFF74FFA0C4B68
:10411000186010BD084C5422200000F073F82200F3
:10412000084980322368002B00D121600434944276
:10413000F8D1E9E753460000D85400204C33000082
:10414000D4540020E140001070B504000A4E300045
:1041500008F0FEFB200007F027FE0500300008F005
:104160007FFB002D05D0054B2C199C4201D828005F
:1041700070BD0348FDF718FD301800200000042032
:104180002CCB0010F8B506000C000C4F380008F0DE
:10419000DFFB2100300007F0A7FD0500380008F024
:1041A0005FFB7443002D05D0054B2C199C4201D8B0
:1041B0002800F8BD0348FDF7F7FCC0463018002082
:1041C000000004202CCB001070B50400054D280021
:1041D00008F0BEFB200007F0F1FD280008F040FBCE
:1041E00070BDC0463018002001480421014B18471B
:1041F00080120020CD350010014B1B6818470000CD
:1042000080120020014B5B681847000080120020DC
:104210009A4200D2885470477047C046F8B5574656
:10422000DE464E464546E0B599460A9B07009A464B
:104230000D9B884693460B9C9B073BD10C9B9C4255
:104240003DD21E1B0B9415000C005E442A004B4609
:10425000013521002020B847B542F7D1A0460B9C7C
:10426000002C20D0454636195346321B013C185DC0
:1042700029004B46B847002CF6D12B003500984654
:104280000D9B9B070FD55B46EC1A0C9BA3420AD9EA
:10429000464698462A004B46310020200134B84754
:1042A00001354445F6D32800F0BCBB46B246A946CA
:1042B000A046F8BD16001500002CD3D1E0E716008B
:1042C0001500002CCED1EEE7F0B54546DE46574648
:1042D0004E46E0B585B09C4610AB1B78149F9346C4
:1042E00098460F9C129E139DBB074CD4002D42D1C3
:1042F000B44248D201233B4099460E9B013B9A466B
:10430000302304E0524601341355A64201D9202C33
:10431000F8D14B46002B00D183E00E9B013B994620
:104320003023A54205D82EE04A4601341355AC424D
:1043300029D0202CF8D1FB060CD57B0554D4A642FD
:1043400063D0A54261D0119B102B50D0022B57D0C7
:10435000202C32D1202301930E9B5A4600930397C1
:1043600063460295FFF75AFF05B0F0BCBB46B24664
:10437000A946A046F0BD01233B40994601233B429C
:104380002AD1B442B9D3FB061CD57B05DBD4002C63
:10439000D5D1119B102B5BD0119B022B6BD03023FE
:1043A00001240E9A13704346002B10D17B073ED593
:1043B0002B260E9A631C1655CDE7230001343026B8
:1043C0000E9AD654202CC5D04346002BEED02D2675
:1043D0000E9A631C1655BEE74346002B2FD0013DB5
:1043E000B44200D289E798E7119B102BB2D1BB06EB
:1043F00037D5202CAED058230E9A13550134A7E799
:10440000202CA7D02300013407E0631E012CC0D06C
:10441000119A102A31D0022AD1D162260E9AD6548E
:1044200096E7FB06CED57B0500D488E78BE7230013
:104430003E0790D520260E9A013316558BE70C23A4
:104440003B405A1E9341ED1AB44200D255E764E74F
:10445000BB060ED478230E9A0224137030235370B7
:10446000A1E7202C00D175E778230E9A135501346B
:104470006EE75823EFE76033EDE70E9AA61E9146EC
:104480004E44BA0602D55822327098E7782232702C
:1044900095E7C04610B5002800D110BD01F0A6FC7C
:1044A000FBE7C0460B0010B5002802D049681B6826
:1044B000984710BDF0B55746DE464E464546E0B536
:1044C00095B083460F00924698461E9A1F9B100097
:1044D0001900209EFFF7D7FC002800D0EAE11E98C3
:1044E0001F990122C54B5242FFF7B2FC002800D0B1
:1044F00014E11E981F990122C14B5242FFF7BEFCE6
:10450000002800D0E9E01E981F990022BD4BFFF75C
:10451000B5FC002800D0C8E01E981F990022BA4BB5
:10452000FFF796FC002800D0BFE01E981F990022DC
:104530000023FFF78DFC002800D0E4E000230B935C
:10454000229B5B0500D406260024302307E01721B8
:1045500006AA013452181355013E202C01D0092E11
:10456000F5D81E981F99FFF7B7FCA84BF2009B18CF
:104570001A685B68050008920993FFF795FC020032
:104580000B001E981F99FFF700FC089A099BFFF784
:1045900020FC06900791FFF7C3FC8146FFF780FCE3
:1045A00002000B0006980799FFF7EFFB0022984BDB
:1045B00006900791FFF762FC002800D10DE101236E
:1045C0009C46E1444846FFF76BFC02000B0008984C
:1045D0000999FFF743FC002802D0002399460135D2
:1045E000002E00D1D9E006954D46B94614E006AA42
:1045F000944617230A216344280001341F19FFF74A
:1046000089F93031397028000A21013EFFF782F91B
:10461000092D00D817E10500202CE8D14F46069D52
:1046200020240CAE06AA17239446634499465B46A1
:10463000B34606930FE04B4628000A210134E618E2
:10464000FFF740F93031280031700A21FFF73AF9BD
:10465000051E00D1E4E0202CEDD1069B5E469B4672
:104660000323229A1340012B18D1219B002B15D034
:104670000B9B002B00D1FDE0219B013B2193202BC4
:104680000CD93023219A07E0172006A90134091814
:104690000B55944200D3CCE0202CF5D1229B019401
:1046A0000393219B0096029322E0229B524604939F
:1046B000219B3900039358461E9B1F9C0296009332
:1046C0000194434600F04AF90400200015B0F0BC04
:1046D000BB46B246A946A046F0BD229B5B070FD45D
:1046E00003224C4B2299019203912199009302914C
:1046F0004346524639005846FFF790FD0400E4E770
:104700000422454BEEE71E9A1F9B00200021FFF775
:104710003CFB01231E901F910B9311E7229B5446F3
:104720009B0711D1219B042B0ED9219B55469C46FA
:104730005E46043C64442A0043460135390020208B
:10474000B047A542F7D1B346344D26002B1F9946FA
:104750005B46A3461C003200E87843463900013D21
:10476000A04701364D45F6D123005C469B46229B6F
:1047700004349B07A9D55346219AE31A9A42A4D937
:104780005E4615002200434639002020B0475346BC
:104790000134E31A9D42F5D897E72800FFF784FB20
:1047A00002000B001E981F99FFF7EFFA0022184B2A
:1047B00006900791FFF74CFB0CAE002800D031E7C4
:1047C000069807990022124BFFF758FB002800D0EB
:1047D00028E7012301359D4324E700220698079925
:1047E0000B4BFFF735FB002800D0F9E64B46002BBA
:1047F0005CD101239C46E144F2E6C046FFFFEFFF97
:10480000FFFFEF7F65CDCD4165CDCDC130D200102A
:104810000000E03F84CB00107CCB00108CCB00105C
:10482000069B5E469B460323229A1340012B00D130
:1048300081E0202C00D131E70B9B002B27D02D23CA
:10484000335501342AE74F46069D202C00D1E7E678
:104850003022331907E0172006A9013409180A5538
:10486000202C00D1DCE6A342F5D12E220CAE01347F
:10487000F254D7E60C23229A134257D0219B013BD6
:104880002193A34200D9FCE6202C00D106E7229B0D
:104890005B0703D52B2333550134FFE6229B1B070F
:1048A00000D4FBE6202333550134F7E6DB0700D4C0
:1048B00096E69EE7229B55469B0711D1219B032B31
:1048C0000ED9219B54469C465E46033D654422001A
:1048D0004346013439002020B047AC42F7D1B346FB
:1048E000B9465F461C4EEC1C2A00B0784346494648
:1048F0000135B847013EAC42F6D1229BBB464F463C
:104900009B0700D4E1E65346219AE31A9A4200D865
:10491000DBE65E4615002200434639002020B04702
:1049200053460134E31AAB42F5D3CEE6219BA342B2
:1049300000D9A6E6B2E6219B002B00D179E70B9BBC
:10494000002B97D0219B013B21939C4200D298E6FB
:10495000202C00D073E7A1E688CB0010F0B5DE462E
:1049600057464E464546E0B599B081468B4692463D
:104970009846229A239B10001900FFF784FA00281A
:1049800000D0CAE0229823990122824B5242FFF7BD
:1049900075FA002800D0C0E02298239901227E4BAE
:1049A0005242FFF755FA002800D0B6E0229823992A
:1049B00000220023FFF74CFA002800D0C9E1229B17
:1049C000239C08930994089809998023269ADB0070
:1049D0001A400D928022269C1201144022000B9452
:1049E000269C07000E001C4200D0ADE00B000343E4
:1049F00000D0D5E0002A00D00AE22200063324933A
:104A0000022313400C930223134200D002E2259BA1
:104A1000042B00D20FE2043B0B93002304250A93DE
:104A20000022229823990023FFF712FA002800D0D1
:104A300003E25A4B269A134004930B9B0393249B47
:104A40000293089B099C00930194594643465246A1
:104A50004846FFF72FFD02002020269B1F2703401A
:104A600059424B415B421840531C089359464346F8
:104A70004530C8470A9AD317D4185C40D30F0A931D
:104A80006B1E0B9308AB9C460025674401E0202D6C
:104A90000FD020000A21FEF73DFF01357E1930318D
:104AA000317020000A21FEF735FF26000400092E90
:104AB000EDD8052306930B9B5946059300230493D9
:104AC0000A3303930A9B4846029310AB0093089A5B
:104AD00043460195FFF7F8FB0C9B002B2DD0534666
:104AE000C41A259BA34228D94D465F4681461E0025
:104AF000534639001A19202043460134A847A642DC
:104B0000F6D8534648462599C21A013200239142ED
:104B100000D386E1013018180FE0269B0493259BF3
:104B20000393249B0293229B239C0093019443466E
:104B3000524659464846FFF7BDFC19B0F0BCBB468B
:104B4000B246A946A046F0BD01432BD10B9B2200E3
:104B5000002B00D154E700230A93249B0A9A0024D7
:104B6000934200DD85E12298239900220023FFF77C
:104B70006FF9002800D035E1269B084A02941A40BC
:104B80008023DB0013430493259B0393089B099C1C
:104B9000CBE7C046FFFFEF7FFFFFEFFFFFF7FFFF11
:104BA00006232493B44B70009C46400D6044FFF7ED
:104BB0007BF9B24AB24BFFF70CF9B24AB24BFFF79E
:104BC000E9F83603B14B360B334304000D003800CF
:104BD00019000022AE4BFFF7D8F8AE4AAE4BFFF7F4
:104BE000F8F802000B0020002900FFF7D3F8FFF7C8
:104BF00073F90A90FFF758F9A84AA94B04000D0071
:104C0000FFF7E7F80022A74BFFF7C4F8FFF764F9B6
:104C1000A54A0600A54B20002900FFF7DAF804009A
:104C200030000D000C96FFF73FF9A14AA14BFFF7AA
:104C3000D0F802000B0020002900FFF7A6F80200C0
:104C40000B0006000F00FFF7C4F8320004000D004F
:104C50003B0030003900FFF79DF800220E900F91C5
:104C6000954B20002900FFF79AF80022934BFFF79D
:104C700091F802000B0020002900FFF790F80022B5
:104C80008F4BFFF787F802000B0020002900FFF789
:104C900086F80D008021040032003B000020C90589
:104CA000FFF773F802000B0020002900FFF772F8ED
:104CB00002000B000E980F99FFF771F80022734B5A
:104CC000FFF768F87F4B0C9C9C4664440022230548
:104CD000FFF77FF806000F0002000B000898099903
:104CE000FFF7B6F800280AD00A9B3000013B3900D4
:104CF0000A930022714BFFF752F806000F000A9A40
:104D0000330063323900C62A12D8022226980425BD
:104D100010400B9A0C90002A25D1259B042B05D915
:104D2000002800D0A1E0259B043B0B93042541E023
:104D30000222269810400B9A0C90002A12D1259B33
:104D4000052B76D9002872D1259B0525053B0B93B1
:104D500034E0802212069446229B0893239B6344EE
:104D6000099330E605250B4300D1F6E6089809992A
:104D7000554A564BFFF77AF8002808D00898099949
:104D80000022534BFFF764F8002800D0E5E6249B8F
:104D9000002B1CD00D9B002B19D0249B013B24938E
:104DA000259BAB4204D90C9B002B5AD002230C93B9
:104DB00000230B930A9B002B00D131E60898099938
:104DC00032003B00FEF7EBFF0890099128E6259B97
:104DD000AB42EDD90C9B002B43D000230B93023345
:104DE0000C93E7E78020269B3A4A00061A4080236E
:104DF00084460294089C099D2900DB001343049318
:104E0000259B6144220003930B00009201938EE6E0
:104E10000524A8E600230B930A93023304250C9380
:104E2000FEE553468C46013B63441B1A72E602239F
:104E30000C930525C2E70423EDE58020089E099F19
:104E4000000639008446269A224B6144134004939D
:104E50000B9B32000393249B02930B00009201935F
:104E6000F3E5259B5B1B0B93A4E7022304250C931E
:104E7000A0E79C1A013C76E601FCFFFFFB799F50FE
:104E80001344D33FB3C8608B288AC63F0000F03F6D
:104E90000000F83F61436F63A787D23F71A3790990
:104EA0004F930A400000E03F1655B5BBB16B02407E
:104EB000EF39FAFE422EE63F00002C40000024406D
:104EC00000001840FF0300002D431CEBE2361A3FA0
:104ED00080842E41FFF7FFFFF0B5DE4657464E4671
:104EE0004546E0B5A5B01E002E9B92460C93CD4AD8
:104EF000CD4B80468B461A60002900D1EAE10023A1
:104F000030789946002800D1ECE1C84B4C460B9311
:104F1000C74B454657460E930AE0631C984622004D
:104F20003B005946A84744463078002800D187E026
:104F300001362528F1D108239A46043B9946023BC5
:104F40009846013B00229C460D943078711C03006A
:104F5000203BDBB2102B03D80B9C9B00E3589F46F1
:104F60000300303B89460D9C092B3AD90023984613
:104F70002A2800D1C1E000239A462E284BD00300F6
:104F8000683BDBB2122B1ED80E999B00CB589F4674
:104F900063460E001A43D8E743460E001A43D4E78F
:104FA0004B460E001A43D0E710230E001A43CCE7FD
:104FB00053460E001A43C8E780235B001A43FF3BA9
:104FC0009C467078E1444E4667284FD82428A4D9DF
:104FD0000300253BDBB2422B9FD896499B00CB5860
:104FE0009F46002394461E0000E00131B3009B1948
:104FF0005B001E180878303E0300303B092BF4D9C3
:105000000123624689469C460023B0469A460E001C
:10501000E1442E28B3D13021802049428C46C00083
:10502000024370784B4684446146092900D86CE1FC
:105030002A2800D17AE101239C464E46E1449EE7AE
:10504000A146A846BA46CA4503D801235B42534449
:10505000994653464A4659460020C047200025B08D
:10506000F0BCBB46B246A946A046F0BD0300693B72
:10507000DBB20D930F2B00D94FE7012199408C46ED
:105080006D49894661464B4619400F916346494632
:105090000B4200D028E10D9B0A2B3AD0072B00D001
:1050A0003BE70C9B190008C98846002B00D14BE157
:1050B00021200243914614A98C461F220F216244ED
:1050C0008C4651460D950C91A24615000F9902E0B1
:1050D00020290CD0130064461C4020003730092CD6
:1050E00000D80738013168541A090F2BF0D80C9BEF
:1050F00054460D9D9A460F9133E10C9B02CB884696
:10510000002947DB0C9301239C4670784E46E1440E
:1051100031E70C9B02CB14935346002B00D138E1AE
:105120009C4608780B000C908C44002801D100F0BC
:1051300098FC89466146944603E05A780133002A78
:1051400001D08B42F9D1494662465B1A0C900F930D
:10515000530500D520E10223180010400D901342A2
:1051600000D1CBE30D930B1BB1469A465E460C98DB
:1051700022003B003100A84753460134185D002847
:10518000F6D1B3464E460D9B002B00D0C7E1149BD1
:105190000C93C9E60C9301239C46283849420243EC
:1051A000884670784E46E144E5E670786C2800D178
:1051B0007FE180235B001A43FF3B9C46E14402E70A
:1051C00080239B001A4301239C467078E144FAE651
:1051D0007078682800D173E180231A437F3B9C4696
:1051E000E144F0E6672800D103E1472800D15AE105
:1051F000452800D15AE10492072142460C9B0392B4
:10520000073352468B43190002920CC928000092C2
:1052100001930C9122003B005946FFF79FFB0400CD
:1052200082E6C046D94E00106C4A002090D0001093
:10523000D4D0001020D1001041900000462800D1A9
:10524000DBE00492072142460C9B0392073352464F
:105250008B43190002920CC92800009201930C9113
:1052600022003B005946FFF725F904005CE6631C69
:10527000984622003B0059462520A847444653E65D
:105280000C9B04330D93631C9946920700D422E1D2
:105290000C9B2200187859463B00A84743464444DB
:1052A000012B00D885E23300B8462E005F4625006A
:1052B0004C46994622004346013439002020B0472D
:1052C000AC42F7D12C00BB46350047464E460D9BFD
:1052D0000C9329E6DB4B307898460023994600284A
:1052E00000D012E60024AEE66F2800D188E000D896
:1052F0000BE31023782800D1CFE09A430A239C4681
:1053000000230F930A330D9380E05646B1008919AC
:10531000490001330E181878303E01003039092950
:10532000F4D9B2461E000133994628E60C9B02369A
:1053300002CB8A46C9435046C917084082460C939F
:105340003078731C99461AE61023100098431133E5
:105350001843814680201300C0000340024200D160
:10536000A9E64B460693082305935346049310235E
:105370000393002302930F9B220001931CAB009325
:1053800059463B002800FEF79FFF434604000C935C
:10539000CAE501235B42C3E60F9B534501D953463F
:1053A0000F930223180010400D90134200D1B7E173
:1053B0000D93D1460B1B9A463300A1442E002200C8
:1053C0004D460C98B9465F469B4608E04B4639006F
:1053D000541CB0475346185D002877D022009542F0
:1053E000F4D15B46BB464F46A94635004C461E00ED
:1053F000C9E680231B011A43FDE620231A4320E758
:1054000008239C4600230F9308330D93802311003B
:10541000DB0019401A4200D116E10D239A43100017
:10542000802302009B001A401492184200D0C2E16F
:10543000802302005B001A4091460C9A04320F92BE
:10544000184200D0B7E2430600D59FE1030600D41E
:1054500019E30C9B1B880993002B00D0FCE110334F
:105460009843002900D1F7E100239946434605936C
:10547000534604930D9B069003930023D2E05828D3
:1054800008D0622867D102239C4600230F93023381
:105490000D93BBE720231A43103B9C4600230F9338
:1054A00010330D93B2E780231B011A4320231A43C4
:1054B000A1E6C0239B001A43F31C9946B07882E50D
:1054C000C0231A43F31C9946B0787CE535005E464C
:1054D000BB464F4657E64346012B00D863E1631EA7
:1054E00043449A463300B9462E005F4655469B46D4
:1054F000A24622004B46013439002020B047AC427E
:10550000F7D135005E46BB464F46A14654460C9B3C
:105510004A46187859463B004444A847D7E6A14676
:105520000F9B984500D832E64444E41A3300B8464D
:105530002E005F4625004C46994622004346013422
:1055400039002020B047AC42F7D12C00BB463500D3
:1055500047464E461BE680231000DB0018401A42E7
:1055600000D10FE1112118008A430D920D9A80237A
:1055700011009B0019408C461A4269D1802311000A
:105580005B00194089460C9904310F911A4200D0F2
:10559000CAE113005B0600D5F0E013001B0600D43F
:1055A00059E20C9B00229B5ED9175A184A4092B2CE
:1055B000D90F0C91002B00D1F9E1100014AA9446E8
:1055C00042461F23149252466344A84616944D4601
:1055D0000400B946B2461F00159201E0202D0FD0FD
:1055E00020000A21FEF796F901357E19303131701D
:1055F00020000A21FEF78EF926000400092EEDD8BE
:10560000149B4F46A94645469846159B56469A46D2
:10561000169C0D9B069343460593534604930A2319
:1056200003930C9B02934B4601931CAB2200009307
:1056300059463B002800FEF747FE0F9B04000C93E1
:1056400072E4C046194200100C239A431000E7E6AA
:1056500007220C9B07339343013294469C446246D5
:105660000C920CCBD90F0F911100194300D191E08E
:10567000D9171391129151401091139959401191DA
:1056800010981199129A139B801A994110901191B8
:1056900014AA0023944642469946149252461F3358
:1056A0006344A846B24616944E46109C119DB946D6
:1056B00015921F0001E0202E10D0200029000A22A0
:1056C0000023FEF765F9013630322B00BA550D0084
:1056D00022000400002BEED1092AECD8149B109470
:1056E000119545469846159B4F46B14656469A46F3
:1056F000169C0D9B069343460593534604930A2339
:1057000003930F9B02934B4601931CAB2200009323
:1057100059463B002800FEF7D7FD0400FFF704FCC4
:105720000F9B984500D8C1E18023DB000D934346D1
:105730000F9A1B199B1A994633002E004D46B94605
:105740005F469B460C9122004B46013439002020D5
:10575000B047AC42F7D143460C9901330F930B7815
:1057600035000C935E46BB464F46002B00D10EE53C
:105770000D9B002B00D1F6E4002319E60C9B1B784F
:105780001A0015E710239A430D92EFE60C9B1B7845
:10579000099361E6002399460028AAD1002200233C
:1057A0001092119374E70C9B2200187859463B0025
:1057B000A8474C468BE50C9AFA3BFF3B07329A43CD
:1057C0000133994691444B460C93136852681592E5
:1057D0001A4306D11032904300220992002900D0CA
:1057E00081E06122810600D54122D2B20A9214AA38
:1057F00091460A9A00210A3A14924246179252465A
:1058000018925A460991B3461F311E000F9B494416
:10581000BA4619941A950024674698468946159DFC
:1058200016901B920AE03032D2B24B4601341A5520
:10583000A8454AD0202C4AD006000D003A0000238B
:1058400030002900FEF7A4F8D2B2092AEBD9149B44
:105850009C466244D2B2E8E76123820600D5412328
:10586000DBB20A3B0C93434614A91F228C461593C6
:1058700053466244A046B2464C461797A9461700C5
:10588000099D0D9E1490169308E03033DBB201346D
:105890003B55B5420ED3202C0CD00500310028001A
:1058A000FEF738F8CBB20929EFD90C9A9446634435
:1058B000DBB2ECE7159B4D46A14644469846169B45
:1058C000564614989A46179FD0E5B742B2D9179B0F
:1058D00057469846189B5E469A461B9B09949B46E2
:1058E0001698199C1A9D43460593534604930D9BA5
:1058F0000690039300230293099B05E70F9B9845AD
:1059000000D914E701330F932DE4102311009943BC
:105910000D91692800D0BAE080231000DB00184008
:105920001A4200D122E61DE60C9B1B68DA0F11001B
:10593000002B00D18CE0DA179818504014AA914639
:1059400042461F23149252464B44A046A94616973E
:1059500004006546B2461F000C91159201E0202D0F
:105960000FD020000A21FDF7D5FF01357E19303117
:10597000317020000A21FDF7CDFF26000400092E1A
:10598000EDD8149B444698460C9BAC461900159BD9
:1059900056464D469A46169F0D9B029106934346E6
:1059A0000593534604930A23039363463CE6002879
:1059B00000D02EE602E60C9B1B689946002B03D113
:1059C00010339843002938D16123820600D5412342
:1059D000DBB20A3B0C9343461693534614A91F228D
:1059E0008C4617932B006244A0464D46B24618974A
:1059F00099461700149C0D9E159008E03033DBB2D9
:105A000001343B55B5420ED3202C0CD0050031009B
:105A10002800FDF77FFFCBB20929EFD90C9A9446F5
:105A20006344DBB2ECE7169B149444469846179BFC
:105A300056464D469A461598189F43460593534639
:105A400004930D9B0690039300230293149BEBE5B4
:105A50000028A1D172E70C9B1B68D9175A184A403D
:105A6000A6E580231000DB0018409C460F901A42E8
:105A70000FD00220030013400F93104219D00023CF
:105A8000A1460F934CE50C9B1B680993E4E40A00C4
:105A900034E40223180010400D90134200D03EE57C
:105AA0004346002B00D042E6FFF771FB01330F9312
:105AB0007FE463460D93F3E70EB4012230B584B062
:105AC00007AC08CC064D0100009428005242039414
:105AD000FFF702FA04B030BC08BC03B01847C04658
